:020000040801F1
:10000000E07C01209D0101085D850108755601080D
:10001000356201089112010839C50108000000008D
:100020000000000000000000000000007DA60108A4
:10003000B913010800000000D9A10108E1A60108D8
:10004000B7010108B7010108B7010108B7010108AC
:10005000B7010108B7010108B7010108B70101089C
:10006000B7010108B7010108B7010108A912010889
:10007000B7010108B7010108B7010108B70101087C
:10008000B7010108B7010108B7010108B70101086C
:10009000B7010108B7010108B7010108B70101085C
:1000A000B7010108B7010108B7010108B70101084C
:1000B000B70101088DA70108B7010108B7010108C0
:1000C000B7010108B7010108B7010108B70101082C
:1000D000B7010108B7010108B7010108B70101081C
:1000E000B7010108B7010108B7010108B70101080C
:1000F000B701010899A70108B7010108B701010874
:10010000B7010108B7010108B7010108B7010108EB
:10011000B7010108B7010108B7010108B7010108DB
:10012000B7010108B7010108B7010108B5120108BC
:10013000B70101080000000000000000B70101083D
:10014000B7010108B7010108B7010108B7010108AB
:10015000B7010108B7010108B7010108B70101089B
:10016000B7010108B7010108B7010108B70101088B
:10017000B7010108BD9C010800000000000000005C
:10018000B7010108B7010108DFF80CD000F02AFE22
:100190000048004721EC0108E07C01200648804728
:1001A00006480047FEE7FEE7FEE7FEE7FEE7FEE75C
:1001B000FEE7FEE7FEE7FEE771A7010889010108F7
:1001C0002DE9F05F0546002092469B46884606468C
:1001D000814640241BE0284641464746224600F01F
:1001E000CAFC53465A46C01A914110D311461846CC
:1001F000224600F0B1FC2D1A67EB01084F4622465B
:100200000120002100F0A8FC17EB00094E41201E40
:10021000A4F10104DFDC484631462A464346BDE8E6
:10022000F09F00000649074A0868504343F239022C
:10023000104408604008704701490860704700009A
:10024000580300206D4EC641014610B509683C2296
:10025000B1FBF2F302FB1313B1FBF2F11D48036093
:10026000B1FBF2F302FB1313B1FBF2F1182243606E
:10027000B1FBF2F302FB1313B1FBF2F183600A1D31
:100280000723B2FBF3F403FB142282618A0040F2DD
:10029000B55102F66C32B2FBF1F344334361B2FB69
:1002A000F1F301FB13218908C1613B2903D3027DCE
:1002B000920700D0491C0022074C13460261E25C01
:1002C0008A4203D8891A5B1C0361F8E7491CC160A4
:1002D00010BD0000B06401200099020870B5054609
:1002E00001B90721541A241DB4F5B67F09DD286829
:1002F00000F036F9A04204DC2868401C2860012088
:1003000070BD002C05DA2868401E286000F028F92E
:100310000444072094FBF0F0401C70BD2DE9F04F21
:1003200089B01D468A468046002401AF4FF0070B76
:100330000192079057F8241011F8010B47F8241088
:1003400048B125280DD0BAF1010F06D908F8010BE4
:10035000AAF1010A5CE0641E5AE0002009B0BDE881
:10036000F08F11F8010B47F824100028F3D0022673
:100370004FF030095A284BD020DC4D2873D014DCC4
:10038000442871D008DC2528DDD041282AD0422815
:100390002ED043283CD130E0462847D0472857D0BC
:1003A000482862D0492833D161E0523808282FD23A
:1003B000DFE800F0787AA6838A97A6A86138192822
:1003C00026D2DFE800F00D1318202E253513255C0A
:1003D000252560642566256D257375258B9BA000FA
:1003E0006AA000E070A0A9690091B4E07DA000E0DF
:1003F00088482969F8E788A007E06969642091FBCB
:10040000F0F0133082E0E86880E0641C47F82400D4
:10041000002C8FDA002088F800000799A8EB010073
:100420009CE7E8684FF02009009070E07EA0ECE7C0
:10043000686900F26C700090D5E906126846FFF713
:100440004DFF0099642091FBF0F200FB12105DE07B
:100450006869042600F26C700090D5E906126846BF
:10046000FFF73CFF53E010E048E0A8684EE0A868C2
:100470000C21173090FBF1F201FB120001E0E8695A
:100480000326401C42E02869FBE768683EE069A05B
:10049000BBE7A8680C2801DA67A0B6E767A0B4E755
:1004A00067A0B2E769A0B0E728682FE069A0ACE7D1
:1004B000A869012608BB072028E0D5E90610401AE4
:1004C000C01D90FBFBF021E0686900F26C700090A9
:1004D000D5E906126846FFF701FF17E00126A86973
:1004E00014E0A9695846891D91FBF0F20BFB12112B
:1004F000EA69511AC91D91FBFBF007E056A084E799
:1005000058A082E70426686900F26C700090002110
:100510008DF8181006A80A2113E0009A92FBF1F357
:1005200001FB1322303200F8012D009A92FBF1F208
:10053000009232B901E000F8019D321EA6F10106D9
:10054000F9DC321EA6F10106E7DC5EE710F8011BBC
:100550000029FBD100994A1E00920029F6DC54E7DD
:1005600081070CD1642190FBF1F201FB120151B91A
:100570004FF4C87190FBF1F201FB120018B100209A
:1005800000F26D1070470120FAE7000053756E000D
:100590004D6F6E00547565005765640054687500B2
:1005A000467269005361740053756E646179004D41
:1005B0006F6E646179005475657364617900576585
:1005C000646E6573646179005468757273646179EF
:1005D000004672696461790053617475726461796F
:1005E000000000004A616E00466562004D617200C5
:1005F000417072004D6179004A756E004A756C0059
:1006000041756700536570004F6374004E6F76004C
:10061000446563000C990208256120256220256548
:10062000202554202559000025592D256D2D2564A0
:10063000000000000A000000414D0000504D000085
:1006400025493A254D3A25532025700025483A255D
:100650004D00000009000000256D2F25642F25792D
:100660000000000025483A254D3A255300000000BF
:1006700040EA01039B0703D009E008C9121F08C024
:10068000042AFAD203E011F8013B00F8013B521EA4
:10069000F9D27047D2B201E000F8012B491EFBD21B
:1006A00070470022F6E710B513460A46044619467D
:1006B000FFF7F0FF204610BD421C10F8011B002977
:1006C000FBD1801A704710B5484304460EF08AFBF0
:1006D000002805D00021002C02D0641E0155FAE745
:1006E00010BD2DE9FE4F804681EA0300C00F0C4685
:1006F000009021F0004123F00045B8EB0200A94131
:1007000005D24046214690461C460B46024623F041
:100710000040104347D0270DC7F30A00C3F30A5126
:100720000290401A019040286BDAC3F3130040F4A2
:10073000801B0098924620B10023D2EB030A63EBA2
:100740000B0B01985946C0F14002504600F004FAE4
:1007500006460D4650465946019A00F01CFA10EB29
:1007600008006141002487EA115284EAE7731A43C2
:1007700040D0009A62B3019A012A4FEA075215DC71
:10078000001B61EB02014FF0004202EA0752CDE983
:100790000042001C41F5801132462B4600F053FA0E
:1007A00003B0BDE8F08F40462146F9E7001B61EB3E
:1007B0000201001C41F5801300185B412018A2F5CE
:1007C000001747EB030140EAD570B6196D4111E0FF
:1007D0006D084FEA360645EAC0754FEA0752001B1E
:1007E00061EB0201001C41F5801149084FEA30001D
:1007F0000019514132462B4603B0BDE8F04F00F0DE
:1008000013BA0098012240000023D0EB020263EBF0
:10081000E073009821464FEAE074B8EB000061EB0A
:100820000401E9E783F000435BE781F0004158E70A
:100830002DE9FE4F81EA030404F0004421F0004159
:1008400000944FF0000B23F0004350EA01045ED007
:1008500052EA03045BD0C3F30A54C1F30A552C4493
:10086000A4F2F3340194A0FB0254C1F3130141F448
:100870008011C3F3130343F4801301FB024400FB14
:10088000034E840A970A44EA815447EA8357A4FB3B
:10089000076802958D0A05FB07854FEA932C04FB38
:1008A0000C542705029D4FEA065847EA1637B5EB68
:1008B00008056EEB070C870E920E47EA811742EA95
:1008C0008312A7FB0201B6EB0B0164EB00042B0DB6
:1008D00043EA0C335E1844EB1C50DA465146E7FB02
:1008E0000201C5F313044FEA0B3343EA14534FEAF2
:1008F0000432019C43EA0603A4F10C040294009C18
:10090000CDE900B400F09FF903B0BDE8F08F0020FE
:100910000146F9E72DE9F04D81EA030404F0004BAC
:1009200021F0004514464FF0000A23F0004150EA40
:10093000050220D054EA01021DD0C5F30A57024631
:10094000C5F31303C1F31300C1F30A5640F4801535
:1009500043F48013A7EB0608101BD64608F2FD38B7
:1009600073EB050002D308F1010801E092185B4126
:10097000B8F1000F03DA00200146BDE8F08D002039
:100980004FF48011064684460EE0171B73EB0507F3
:1009900005D3121B63EB050306434CEA010C49081F
:1009A0004FEA300092185B4150EA0107EDD152EA5C
:1009B000030012D082EA040083EA0501084305D04F
:1009C000101BAB4106D20122002306E000224FF0AB
:1009D000004302E06FF0010253101AEB06004CEBEB
:1009E000085110EB0A0041EB0B01BDE8F04D00F09F
:1009F0001BB90EB5C10F80EAE0700844CA07002198
:100A000040F233438DE80E000A460B4600F01BF916
:100A100003B000BD0EB540F2334102910021CDE993
:100A200000110A460B4600F00EF903B000BD70B588
:100A3000C1F30A5201F000450024C1F3130140F252
:100A4000FF3341F480119A4201DA002070BD40F278
:100A500033439A42A2F2334203DC524200F08BF855
:100A600000E090402C43F1D0404270BDC1F30A52E7
:100A700010B5C1F3130140F2FF3341F480119A42E3
:100A800001DA002010BD40F233439A42A2F2334211
:100A900003DC524200F06FF810BD904010BD00F032
:100AA000004230F000400AD0C10D01F56071C0F382
:100AB000160042EA0151C208400711437047002066
:100AC0000146704730B5041E71F1000404DB4FF09D
:100AD0000044404264EB0101141E73F1000405DB85
:100AE0001C464FF00043524263EB0403994208BF97
:100AF000904230BD01F0004330B421F0004150EA93
:100B0000010206D00A0DA2F56072C1F31301002A9A
:100B100002DC30BC00207047440F44EAC104C1002D
:100B2000E01830BC00EBC25000F047B830B50B46BF
:100B3000014600202022012409E021FA02F59D420D
:100B400005D303FA02F5491B04FA02F52844151EE1
:100B5000A2F10102F1DC30BD202A04DB203A00FAC8
:100B600002F1002070479140C2F1200320FA03F304
:100B7000194390407047202A04DB203A21FA02F002
:100B80000021704721FA02F3D040C2F120029140C7
:100B9000084319467047202A06DBCB17203A41FA52
:100BA00002F043EAE07306E041FA02F3D040C2F1FA
:100BB000200291400843194670470029A8BF70479A
:100BC000401C490008BF20F00100704710B4B0FA83
:100BD00080FC00FA0CF050EA010404BF10BC70471E
:100BE00049B1CCF1200421FA04F411FA0CF118BF38
:100BF000012121430843A3EB0C01CB1D4FEA006107
:100C00004FEA102042BF002010BC704700EBC350D9
:100C100010440029A4BF10BC7047401C490008BF05
:100C200020F0010010BC704710B5141E73F10004D1
:100C300008DA401C41F1000192185B411A4301D1CE
:100C400020F0010010BD2DE9F04D92469B4611B1F8
:100C5000B1FA81F202E0B0FA80F220329046FFF75A
:100C60007BFF04460F4640EA0A0041EA0B01534667
:100C70005A46084313D0114653EA010019D0C8F16F
:100C800040025046FFF777FF05460E46504659464C
:100C90004246FFF761FF084305D0012004E02046EB
:100CA0003946BDE8F08D0020054346EAE0762C4346
:100CB00037430A986305E40AA0EB08000022FD0A06
:100CC00044EA47540A3002D500200146E9E701050D
:100CD00010196941DDE9084500196941BDE8F04D89
:100CE000A2E770B521F0004303430CD0C1F30A55CD
:100CF0000024D5EB040564EB0403D617AD1AB34109
:100D000002DB0020014670BD201841EB025170BD8E
:100D10002DE9F04D00231A461B1A8A4103DB0020FF
:100D20000146BDE8F08DC1F30A52C1F3130141F44D
:100D300080154FF0000BD10702D100186D41521EF3
:100D40000027044640F2FF11384601EB620A3E4696
:100D50008046024600204FF48011FFF70CFFC219B5
:100D60007141BB1846EB0100B4EB030C75EB000CB2
:100D700004D3E41A65EB000517460E46241908F162
:100D800001006D4180463428E3DDF91946EB060089
:100D9000091BA84103D24FF0FF32134601E00022A5
:100DA00013461BEB070046EB0A51BDE8F04DFFF779
:100DB0003BBFC1F30A52C1F3130140F2FF3341F4C8
:100DC00080119A4202DA00200146704740F2334314
:100DD0009A42A2F2334202DC5242FFF7CCBEFFF746
:100DE000BBBE0000064C074D06E0E06840F0010382
:100DF00094E8070098471034AC42F6D3FFF7C8F9DF
:100E00009C9A0208BC9A020870B58C1810F8015B15
:100E100015F0070301D110F8013B2A1106D110F893
:100E2000012B03E010F8016B01F8016B5B1EF9D197
:100E30002B0705D40023521E0DD401F8013BFAE71D
:100E400010F8013BCB1A921C03E013F8015B01F888
:100E5000015B521EF9D5A142D8D3002070BD00001D
:100E6000464910B54A6822F440324A604A684368ED
:100E70001A434A6001684A6822F480724A60016835
:100E80004A68036942EA03224A6001684A6822F01C
:100E900040724A6001684A6883681A434A60016880
:100EA0008A6822F400628A6001688A68C3681A430B
:100EB0008A60816A6FF07062D14201688A6822F0AC
:100EC00070628A6001688A680CD0836A1A438A60FB
:100ED00001688A6822F040528A6001688A68C36AA1
:100EE0001A4301E022F040528A6001688A6822F0C9
:100EF00002028A6001688A68037E42EA43028A60CD
:100F000090F82010002901684A680FD042F400626E
:100F10004A6001684A6822F460424A6001684A688F
:100F2000174C436A04EB43331A4301E022F4006296
:100F30004A600168CA6A22F47002CA620168CA6A19
:100F4000838B104C04EB03531A43CA6201688A680E
:100F500022F400728A6001688A6890F8303042EAB0
:100F600043228A6001688A6822F480628A6001688C
:100F70008A68406942EA8020886010BD00230140F1
:100F800000E0FFFF0000F0FF00F00F01000900EBA0
:100F9000800001EB4000C0B2704700002DE9F0472F
:100FA0009A462DED068B91468846054600F0B8F826
:100FB000264CE06BA0F51670E063216CA1F59661FC
:100FC00021640DF0F3FB0746206C0DF09FFB0646F5
:100FD000A06B0DF061FB04463846FFF70AFD9FED5C
:100FE0001C9B53EC192BFFF795FC41EC180B30467A
:100FF000FFF710FD53EC192BFFF78CFC41EC190B9C
:101000002046FFF707FD9FED141B53EC112BFFF754
:101010000FFC41EC1A0B51EC180BFFF76BFDC8F8F5
:10102000000051EC190BFFF765FD286051EC1A0B1D
:10103000FFF760FDC9F80000284600F02BF88AEDA4
:10104000000ABDEC068BBDE8F0870000F00200202E
:101050000000000000005940000000000000503F68
:1010600070B501242725A02604F006FC2246F221B3
:10107000762004F067FD2A46F421762004F062FD14
:101080003246F521762004F05DFDBDE8704000F0A9
:101090006FB8000010B5D0ED000AF5EEC00AF1EE11
:1010A00010FA26DD9FED141A81EE200A10EE100AC8
:1010B000FFF7F5FC41EC100B9FED101B0BF0F8FA5D
:1010C0009FED101B51EC100B53EC112BFFF7AAFBFB
:1010D0009FED0E1B53EC112BFFF7AAFB9FED0D1B91
:1010E00053EC112BFFF716FCFFF704FD00EE100A7E
:1010F00010BD9FED0A0A10BDCDEC7D4428610C8720
:101100008A5AC83F000000000000F03F0000006065
:1011100066A2724000000080BE9F7A3F000000007F
:101120001CB56B460822F721762004F00BFC9DF8D5
:1011300000009DF80110000340EA01109DF8021024
:1011400040EA1111094801649DF803109DF804203C
:10115000090341EA02119DF8052041EA1211C16319
:10116000BDF8061049BA81631CBD0000F0020020E2
:1011700000B589B06B4618228821762004F0E2FB86
:101180000122A121762006AB04F0DCFB0722E1213D
:1011900076200DF1190304F0D5FB2048BDF80010AE
:1011A0008180BDF80210C180BDF804100181BDF836
:1011B00006104181BDF808108181BDF80A10C18177
:1011C000BDF80C100182BDF80E104182BDF8101060
:1011D0008182BDF81210C182BDF814100183BDF8E0
:1011E000161041839DF818100170BDF81910818305
:1011F0009DF81B1041709DF81D109DF81C300A468B
:1012000063F31F12C2839DF81E20120142EA1111DE
:1012100001849DF81F10817009B000BDF00200200C
:1012200070B504462DED028B01F0FCFF114D696B8A
:10123000401AA0421BDD05F130031A1F111F081FC1
:10124000FFF7ACFE05F12400FFF724FF10EE100AB3
:10125000FFF725FC41EC180B01F0E4FF014653ECCD
:10126000182B05A00DF0CAFA01F0DCFF6863BDEC95
:10127000028B70BDF00200205B253038645D3A209F
:10128000616C743A20252E3366206D20200A000000
:10129000FEE70A21B0FBF1F201FB1202B0FBF1F014
:1012A00042EA0010C0B27047014801F02DBD0000B5
:1012B000D0320020014801F027BD00009833002003
:1012C00001681823CAB2103AB2FBF3F2054B6FF370
:1012D0000901032A9B5CC36500D9091D8165084685
:1012E00070470000E9F0010810B5014600208B6945
:1012F0008A6A4FF0C07453B1B3F5005F15D072B174
:10130000012A0CD0022A0AD0032A09D104E01AB11A
:10131000012A06D0022A03D1C96AC90100D50120D9
:1013200010BDC96AA142FAD010BD002AF7D0012A27
:10133000F2D0022AF3D0032AF3D010BD30B50468EE
:10134000256825F480252560046863608368402B48
:10135000036803D099600068C26030BD9A6000687D
:10136000C16030BD70B5134D6C6807E0A189A068FD
:1013700001F046FF68B1002060706468002CF5D170
:10138000002041F2883100BF401C8842FBDB6C68C2
:101390000BE00120F0E7A189A06801F031FF38B12E
:1013A00000206178084320706468002CF3D170BD80
:1013B0000120F6E7EC0100207047000003230376CC
:1013C0000023436003614361816082810121817058
:1013D00004494A681AB18A6850608860704748605A
:1013E000FBE70000EC0100202DE9F0410120FFF7B0
:1013F000B9FF01F017FF1C4C002540F6B833E66832
:1014000061682AE08F780A78974201D90D7607E063
:1014100002D24FF0010702E06AB14FF003070F76E6
:101420000F7E57B1012F0AD0022F0AD04F699F4279
:101430000DD34B610FE00227F1E70D610BE04D6129
:1014400009E00F69A0EB060C67440F6103E0A0EB15
:10145000060C67444F618A7049680029D2D101F0B7
:10146000E1FEE060BDE8F081EC01002070B5244CA5
:101470004FF4FA76002563683FE0184609F028F833
:10148000187E012817D11869B04208D3184604F015
:10149000F2F8187E01280ED11869B0420BD22078DC
:1014A00010B1187F20B108E0184608F0C5FE23E00F
:1014B000012018770FE02078F0B1187F012802D0C2
:1014C00002280FD018E0187E28B95869F02802D2F7
:1014D0000220187710E05869F0280DD9184608F056
:1014E000ABFE08E0187E012806D11869B04203D28D
:1014F000184607F02DF81D775B68002BBDD170BD35
:10150000EC0100200FB4002310B5CC699FED250A33
:10151000237081F820304C6A84ED000A81ED0A0ABC
:1015200081ED0B0A81F830304B634A619DF814203D
:101530000A71082A1ED2DFE802F01D04080E0E0808
:101540000819069A81F8302014E0069ACA611278C8
:1015500081F820200EE0069A4A62D2ED000AC1ED21
:101560000B0AD2ED000AC1ED0A0A01E0069A8A616F
:10157000079A4A630B60826882B1C2685279521C32
:101580004A71C2681160C1604879C88081ED020A61
:1015900081ED030A0B8210BC5DF814FB4B71816076
:1015A000F1E70000000000000FB4002141618160FC
:1015B000C16001609DF804200271022A01D1029AE3
:1015C0004261074A136D3BB1516D0B7C5B1C037488
:1015D0000860506504B0704701741065F9E70000B9
:1015E000000200202DE9F041234C012505F12800DF
:1015F000002607B206F10A002288394600B207F039
:1016000095FCB61CDD2EF5DBAD1CC92DEEDB1420E0
:1016100001F0ECFC07F024FF012505F1280001266C
:1016200007B206F10A002288394600B207F07EFCB4
:10163000B61CDD2EF5DBAD1CC92DEEDB142001F050
:10164000D5FC07F00DFF002505F12800012607B2A3
:1016500006F10A002288394600B207F067FCB61C82
:10166000DD2EF5DBAD1CC92DEEDB142001F0BEFC38
:10167000BDE8F04107F0F4BEC40200207CB504468A
:101680000079814D09287CD2DFE800F012056886D8
:10169000861842F8E900208A7CA2283001B20C208A
:1016A00008F086FA208A6269283001B21B20D1E056
:1016B000208A6269283001B20C20CBE0208A74A213
:1016C000283001B20C2008F073FA208A62692830B1
:1016D00001B21B2008F06CFAD5E91601421AE36941
:1016E000811E01EBD171C1F347011B78CDE90031B7
:1016F000218A02EBD272A1EB6201821E491CC0F169
:10170000D30009B292B200B2032300F027FB7CBDE4
:10171000208A5FA2283001B20C2008F049FA208A02
:101720006269283001B21B2008F042FAD5E916019F
:10173000E2690123411A1278CDE90023228A01EBE4
:10174000D171A2EB6101821E491CC0F1D30009B224
:1017500092B200B2022300F0B3F87CBD208A4CA202
:10176000283001B20C2008F023FA208A6269283060
:1017700001B21B2008F01CFAE06900780028208ADA
:1017800000E07BE000F1280001B202D041A2C320BA
:1017900060E041A2B7205DE0208A3DA2283001B27E
:1017A0000C2008F005FA208A6269283001B21B205B
:1017B00008F0FEF9606A394990ED000A10EE100A4F
:1017C00088420BDAB5EEC00AF1EE10FA06DB208A89
:1017D0000223283001B20422B22031E010EE100AB8
:1017E0002F4988420BDA10EE100A2E49884206D2A1
:1017F000208A0223283001B20422A62020E010EE25
:10180000100A294988420BDA10EE100A274988424B
:1018100006D2208A0223283001B204229A200FE047
:1018200010EE100A224988420FDA10EE100A214900
:1018300088420AD2208A0223283001B204228E2054
:1018400002B0BDE8704008F074B9208A1AA22830AE
:1018500001B29F2002B0BDE8704008F0A9B9002095
:1018600007F060FE208A6269283001B21B2008F070
:101870009FF9BDE87C40042007F054BE208A04A2F2
:10188000283001B20BE70000000200202B0000000E
:101890002D0000006F6E00006F66660000002041A2
:1018A0000000C842000020C100007A440000C8C205
:1018B00000401C4600007AC42A2A2E2A2A00000072
:1018C0002DE9FC47DFF85480DDE90AA70646B8F8A1
:1018D0000000CDE900070D4601F1280001B21C46C9
:1018E00006F10A009146134600B207F0B9FBBAF1BF
:1018F000000F10D0B8F80000CDE90007614209EBF5
:10190000410083B282B22819283001B230190A305E
:1019100000B207F041FBBDE8FC870000C2020020D6
:101920002DE9F0430D4691464621B1FBF9F82DED26
:10193000028B83B08B4C07461BB19FED8B0A84ED65
:101940001B0A387900286ED194ED1A0ABDEEC00A40
:1019500010EE100A90B9B868B2EE088A01794069B1
:1019600071B1FEF7A9FE401C00EE100AF8EE400A25
:10197000B2EE000A00EE880A84ED1A0ABE6854E04E
:10198000FEF79AFE00EE100AF8EE400AB1EE040AE5
:10199000F0E77079A84247D130790028706929D0E2
:1019A000FEF78AFE00EB40005FF0140101EB8000BF
:1019B0006086F188A06D4143A186217A8D4236D0A0
:1019C000691A00D54942FA68527991422FDAB6F97C
:1019D0001010B5EE000A002912DA00EE900AB0EEFF
:1019E000081AF8EEE00A60EE810A20EE800A84ED23
:1019F0001B0A1CE0FEF760FE00EB40000521D5E766
:101A000000EB8002B1EB420F11DBC10000EE901A37
:101A1000B8EEE01A00EE900AF8EEE00A00EE801A46
:101A200084ED1B1A03E097E03668002EB1D1208EBA
:101A300010B1217A8D4221D0618ED4ED1A0A00EEC8
:101A4000101AB8EE400A70EE600A00EE108AB8EE86
:101A5000400A80EE801A84ED181AA18ED4ED1B0A7C
:101A600000EE101AB8EE400A70EE600A00EE108A1E
:101A7000B8EE400A80EE801A84ED191A46280CD37D
:101A8000608E00EE100AB8EE400A84ED1A0AA08EAD
:101A900000EE100AB8EE400A0DE094ED1A0AD4EDFB
:101AA000180A30EE200A84ED1A0A94ED1B0AD4EDD0
:101AB000190A30EE200A022084ED1B0A07F02CFDE3
:101AC0002A4F01264FF028083888CDE9000694ED0A
:101AD0001B0AB4F85800BDEEC00A83B210EE100A1B
:101AE00008FA80F094ED1A0A01B2BDEEC00A10EEB9
:101AF000100A82B20A2007F04FFA012007F00CFD0D
:101B00003888CDE9000694ED1B0AB4F85800BDEE04
:101B1000C00A83B210EE100A08FA80F001B2042263
:101B2000E22007F039FA257294ED1A0A618EBDEEB3
:101B3000C00A10EE100A88420AD194ED1B0AA18E49
:101B4000BDEEC00A10EE100A884201D1002002E06A
:101B5000218E01EB0900208603B0BDEC028BBDE8AD
:101B6000F08300000002002000004843C202002071
:101B70002DE9FC418046FEF79FFD00EB400005216A
:101B800001EB800085B2C5F1DC0000EBD0704408A9
:101B9000FFF728FD144F012680213888CDE9000683
:101BA00004F10C0000B214232A4607F059FA3888D1
:101BB000CDE9000604F10800842100B214232A466E
:101BC000A41E07F0E9F9022007F0A6FC0C348621D8
:101BD00020B2424607F0ECFF012007F09DFCBDE873
:101BE000FC4107F03DBC0000C2020020F8B50546EC
:101BF000012007F091FC544C2A20E0846869FEF72C
:101C00005BFD401C0C287DD96869FEF755FD00EB93
:101C10004000132101EB800080B2A084922801D201
:101C20009220A08480B2C0F1DC0101EBD1714F1091
:101C30002784E28CA0F15203C2F1C80101EBD171FB
:101C400049106184414E2385921C3388009393B2DE
:101C5000801C82B22731093709B238B207F0C3F8C5
:101C60003B4800880090608CE38C283001B2208CC7
:101C7000A28C0A3000B206F0C0FC608C21796A693F
:101C80000844283001B2208C0D3000B207F090FFDC
:101C90006869FEF711FD218C00EB400001EB80002C
:101CA000618C22790D301144283100B209B229A289
:101CB00007F07EFF30880090608C21791023084463
:101CC0003C3001B2208C228D0D3000B207F08BF831
:101CD000686A9FED211A90ED000A208DC0EE010A7E
:101CE00000EE100AB8EE401AB1EE000A10EE810ABA
:101CF000BCEEC00A10EE100A82B230880090608CF0
:101D0000217900E01DE008443E3001B2208C0C2314
:101D10000F3000B206F071FC686A2179A28C90ED58
:101D2000000A608C022308443C3001B2208C10442D
:101D3000423800B2032207F0FCFEBDE8F84007F08D
:101D40008FBB97206DE7000000020020C202002038
:101D5000C40200203A0000000000C8422DE9FC4700
:101D6000DFF85C80DDE90AA706460D46781EC0B2A2
:101D7000B8F80010CDE9001005F1280001B21C46AA
:101D800006F10A009146134600B207F069F9BAF16C
:101D9000000F13D0604207EB4001C9B2B8F8002031
:101DA000CDE9002109EB400083B282B22819283026
:101DB00001B230190A3000B207F0EEF8BDE8FC8736
:101DC000C20200202DE9F14F07F048FB012007F087
:101DD000A3FBDFF81482854F98F80000D8F8504034
:101DE000385C00E02468217C8142FBD198F8020035
:101DF000B8B1A46898F817000FE0617981420BD15F
:101E00002079042802D12046FFF7F0FE616B01B073
:101E10002046BDE8F04F08472468002CEDD1BDE80E
:101E2000F88F734E307818B106F09AFB00F04EFC34
:101E30002079DFF8B891002509F10A0902280BD0B2
:101E400098F80110002936D0012835D04FF0080A43
:101E50004FF00A0BA6686CE061692046884788F855
:101E60001E5088F81D5088F81B5088F81A5088F8C2
:101E7000195098F80000E0B198F81C10A9B188F842
:101E80001C503D5409F80050401EC0B288F80000B4
:101E900019F8000088F8170000F0DAFA012398F822
:101EA00017102046009AFFF73BFD3078002802D13A
:101EB000B5E788F81C5093E088F81E5088F81D504C
:101EC00088F81B5088F81A5088F8195098F80000C4
:101ED0000028EED098F81C10002915D088F81C5066
:101EE0003D5409F80050401EC0B288F8000019F8AF
:101EF000000088F8170000F0ABFA012398F81710DB
:101F00002046009AFFF70CFD6AE03079082825D0BA
:101F10001021C8F85C101421C8F8581098F8172040
:101F200031462046009B00F067F83046FFF7A6FBDD
:101F30003668002EE9D10023464698F8171020464F
:101F4000009AFFF7EDFCE06841793176707E58B178
:101F5000F07D884205D2401CF07505E0C8E916BA4C
:101F6000DCE7F07800B1F575B07E38B1F07D10B1E6
:101F7000401EF07502E0F07800B1F175F07E70B1AE
:101F8000F07DA16809E04A79824205D1164A2046CF
:101F9000173200F0D7F802E009680029F3D1B577CD
:101FA0007577F576B5767576307878B1317FB9B1D9
:101FB00035773D5409F80050401EC0B2307019F812
:101FC0000000F0759FED0B0AA06805E0357707E08B
:101FD000058280ED020A00680028F9D100F038FA85
:101FE000BDE8F84F07F03CBA00020020B03C0020EA
:101FF0007C02002000000000F0B54624B4FBF3F79B
:10200000374C8568E679E6B9284617E090F805C0B0
:10201000944506D1B0F906E0BEF1000F01DAC088A0
:1020200008E0944509D1B0F906C0BCF1090F04DD00
:10203000C0880938A085012602E000680028E5D1A3
:10204000E671B4F92C0003E0EE88361AEE802D68B4
:10205000002DF9D1A585E571B1F9060094F805C008
:10206000A66D00FB06C000B2E085668D1EB194F837
:1020700006C0624513D0B1F910C000EE10CAF8EEE8
:10208000C00A00EE100AB8EEC00A70EE600A00EE58
:10209000107AB8EE400A80EE801A81ED031A462EBF
:1020A00004D300EE100AB8EEC00A05E091ED020A72
:1020B000D1ED030A30EE200A81ED020ABDEEC00A1E
:1020C00010EE107A3FB20F82A2710968002902D186
:1020D000874201D16585F0BDF0186085F0BD000034
:1020E0000002002038B504460F4807F021F807F039
:1020F000B5F906F035FA34B10C4838233A2270218C
:1021000000905B2005E00A4800901C231D227E21E0
:10211000692007F079FA07A2DF213D2007F048FD8A
:10212000BDE8384007F09CB9882A002081F70108F3
:1021300029F1010845617379554928457242575F75
:1021400073290000F0B40E790125294B0024082ED4
:102150002FD2DFE806F02E043E4343303E471D7881
:10216000092D26D0234E91F830C0775D674520D0E9
:1021700006F10A0C17780CF805706D1CEDB21D7095
:1021800091F830107155147080689FED1B0A07E0BC
:10219000B0F90610002902DB048280ED020A006813
:1021A0000028F5D1F0BC00F053B9012100E0002176
:1021B0000170F0BC7047806809E00279052A05D1FA
:1021C00042794B799A4201D0C269147000680028A4
:1021D000F3D1C86901780029E9D1E6E79D70F0BC28
:1021E000FFF700BA9D708869F0BCFFF7C1BC000022
:1021F00000020020B03C0020000000002DE9F05F4C
:10220000534DDFF85081544F687EDFF85091DFF86E
:1022100050B1544C4FF47A7A4FF4FA6618B3C8228E
:10222000514651480CF0A4FC3522504950A00CF006
:1022300025FF5648008970B1207880F00100207099
:10224000207818B3002088F80000387089F8000062
:102250008BF800001AE03246BDE8F05F4FF496714B
:102260004B480CF085BCA87E80B14FF4FA72314621
:102270003D480CF07DFC43223C4946A02B690CF004
:10228000FDFE207810B14B4901204870304D2035BB
:10229000A87E80B14FF4FA72314633480CF068FCE6
:1022A0004A22324944A02B690CF0E8FE5246002134
:1022B00037480CF05DFC2078002847D0464ADFF80C
:1022C0001CA1484C10789AF80010474D0843444927
:1022D000464E0B781843237818432B7818433378ED
:1022E000184333D13B780B7098F80000207099F8B0
:1022F000000028709BF80010317011708AF80000FF
:10230000002088F80000387089F800008BF8000081
:1023100023B15B22154936A00CF0B0FE237823B11F
:102320005D22124938A00CF0A9FE2B7823B15F2260
:102330000E493BA00CF0A2FE3378002B06D0BDE87E
:10234000F05F612209493CA00CF098BEBDE8F09F07
:10235000C0410020E3020020E2020020E102002050
:10236000E002002001020020602A002009F101089B
:1023700025735B25645D3A206B657955703A697306
:102380005072657373656420200D0A0018000020E8
:10239000382A002025735B25645D3A206B657955EA
:1023A000703A686F6C6454696D653A256420200D3D
:1023B0000A0000007C02002025735B25645D3A2042
:1023C0006B6579446F776E3A686F6C6454696D65BC
:1023D0003A256420200D0A00190200201A0200206C
:1023E0001B0200201C0200201D0200201E020020F3
:1023F00025735B25645D3A206F706E456E7465725F
:102400003A256420200D0A0025735B25645D3A207F
:102410006F706E457869743A256420200D0A0000BB
:1024200025735B25645D3A206F706E55703A2564A4
:1024300020200D0A0000000025735B25645D3A2012
:102440006F706E446F776E3A256420200D0A00008D
:102450002DE9F0412F4C012505F12800002607B297
:1024600006F10A002288394600B206F05FFDB61C6C
:10247000DD2EF5DBAD1CC92DEEDB0F2000F0B6FD27
:1024800006F0EEFF012505F12800012607B206F14E
:102490000A002288394600B206F048FDB61CDD2E3F
:1024A000F5DBAD1CC92DEEDB0F2000F09FFD06F023
:1024B000D7FF002505F12800012607B206F10A0022
:1024C0002288394600B206F031FDB61CDD2EF5DB60
:1024D000AD1CC92DEEDB0F2000F088FD06F0C0FF1B
:1024E000012505F12700012607B206F1090022881F
:1024F000394600B206F01AFDB61CDD2EF5DBAD1C28
:10250000C92DEEDB0F2000F071FDBDE8F04106F0B3
:10251000A7BF0000C402002072B600224FF4804121
:10252000014800F07AFEFEE7000402402DE9F05F6A
:10253000DFF840A104462DED028B9AF800004E4FC3
:10254000DFED4E8A4E4EB2EE048A002530B3606A4B
:1025500090ED000A30EE080A10EE101AB94201DDC3
:102560009FED480A80ED000A606A90ED000A10EEC7
:10257000100AB84202D1B0EE680A01E020EE080A63
:102580006422BCEEC00A10EE100A81B231813E48CE
:102590000CF0EEFA3D4805708AF80050DFF8F08044
:1025A00098F8000040B3606A3A4A90ED000A30EEB5
:1025B000480A10EE101A914202DB80ED000A01E099
:1025C00080ED008A606A90ED000A10EE100AB842B1
:1025D00002D1B0EE680A01E020EE080A6422BCEEE7
:1025E000C00A10EE100A81B2318127480CF0C0FAFF
:1025F0002948057088F80050DFF8A09099F800008D
:1026000050B1606A90ED000A84ED0B0AFEF7EAFF14
:102610002348057089F80050DFF888B09BF8000067
:10262000D0B1606A94ED0B0A80ED000A10EE100A3A
:10263000B84201D060EE088A6422BCEEE80A10EECF
:10264000100A81B2318110480CF092FAFEF7CAFFED
:10265000134805708BF8005088F800500E488AF82F
:10266000005089F80050057008480570BDEC028BD9
:10267000BDE8F09F1D0200200000C84200C0794460
:10268000180000200000C842382A0020190200204B
:102690001E020020000020411A0200201B02002020
:1026A000020200201C02002006484178002907D0C1
:1026B00000214170044A511FA1F19000FFF742BD73
:1026C000704700007C0200209D3D002010B5144C96
:1026D000A07808B104F0F6FBE07808B103F06CFFD5
:1026E000207908B105F038F8607908B104F028FDC8
:1026F000A07908B104F0B4FEE07908B105F01EFA43
:10270000207A08B105F05EF9607A08B104F014FA95
:10271000A07A002803D0BDE8104003F0CBBF10BD65
:102720007C02002010B540F2E31110FB01F13C489F
:1027300000EB8100D0F8581702292ED05FF0080175
:1027400000EB810202F58062491E92EDCC0A82ED17
:10275000CD0AF5D500F580619FED322AD1EDCC0A86
:1027600091ED040A9FED301A70EEC01A01EE821A44
:1027700070EEC10AC1EDCC0AF4EEC00AF1EE10FA17
:1027800002D20221C0F85817D0F860174A1CC0F8CE
:102790006027642942DD032010BD002202EB820184
:1027A000082400EBC10100BF01EB8403641E93ED1C
:1027B0003C0A83ED3D0A03F5806393ED040A83ED43
:1027C000050AF1D500EB820391ED3C0AD3ED140A22
:1027D0009FED161A521C30EE200A142A81ED3C0A95
:1027E00001F58061D3ED280A91ED040A30EE200A4C
:1027F00081ED040AD0F85C1793ED280A00EE901AD8
:10280000F8EEE00A00EE810A83ED280AC6DBD0F874
:102810005C174A1CC0F85C275029BCDC022010BDA4
:10282000A85C0120CDCC4C3ECDCCCC3DCDCCCC3C1D
:10283000F8B5294D00EB8006062155F8260005EB7A
:10284000860490FBF1F201FB1201103100EE101A28
:10285000D4ED040AB8EEC01A9FED200AB4EEE01AD7
:10286000F1EE10FA34DD94ED021A71EE600AF5EE25
:10287000C00AF1EE10FA2BD3BCEEE00A0F27009746
:1028800010EE101AA38900B28AB2A18809B206F02C
:1028900063F8009794ED020AD4ED040A48F230433D
:1028A00030EE200ABCEEC00A10EE100A82B2A088F8
:1028B00001B235F8260000B205F0BAFE94ED040A24
:1028C000DFED070A022030EE200A84ED040AF8BD8D
:1028D00084ED040A0320F8BD3053012000000000FD
:1028E000CDCCCC3E10B5044600F06AF908B1FFF734
:1028F00013FE6421204600F00DF908B1FFF70CFE2D
:102900002046BDE8104000F0A7B8000078B50024CC
:10291000009490F83C20012A19D0012280F83C2034
:102920000A6807230568092A13D9EE680A3A02EBF8
:10293000420293409E43EE600B788A680A3B03EBA9
:1029400043039A400368DD682A43DA6010E00220FE
:1029500078BD2E6902EB420293409E432E610B78B4
:102960008A6803EB43039A4003681D692A431A618E
:102970004A681F23072A13D205686E6B521E02EBAA
:10298000820293409E436E630B790A885B1E92B26B
:1029900003EB83039A4003685D6B2A435A6327E085
:1029A00005680D2A12D22E6BD21F02EB82029340D1
:1029B0009E432E630B790A88DB1F92B203EB8303DD
:1029C0009A4003681D6B2A431A6311E0EE6A0D3AC0
:1029D00002EB820293409E43EE620B790A880D3B24
:1029E00092B203EB83039A400368DD6A2A43DA62FA
:1029F000164B0568144A9D4206D10D68122D03D16D
:102A0000556845F48005556005689D4218D10B68EE
:102A1000102B01D0112B13D1536843F400035360E2
:102A2000096810290CD10A490A4A0968B1FBF2F178
:102A300001EB8101490000E0491E00910029FBD112
:102A400080F83C40002078BD002301400020014078
:102A50003C00002040420F000068C06C704770B519
:102A600004004FF0000503D0206C002610B107E0F1
:102A7000012070BD204600F01DF8666484F83C60BB
:102A8000206CC00610D4206C20F4885040F0020066
:102A900020642046FEF7E4F96664206C20F0020012
:102AA00040F00100206400E0012584F83C602846E5
:102AB00070BD000010B586B0044614216846FDF7CD
:102AC000F0FD1149206888421CD11048002102689D
:102AD00042F480720260006800F4807005900B4838
:102AE0001438026842F001020260006800F0010040
:102AF0000590022000900320CDE9010169460448B9
:102B000000F086FA06B010BD0020014044380240B3
:102B1000000002402DE9F041044600680D4681683E
:102B20004FF0000749050BD58068C00508D5206C1B
:102B300040F02000206484F83C700120BDE8F08162
:102B400000F070FB064613E0681C11D025B100F0C0
:102B500069FB801BA8420BD920680068800707D456
:102B6000206C40F00400206484F83C700320E5E70A
:102B7000206800688007E7D521686FF012000860C0
:102B8000206C40F4007020642068816811F0405F80
:102B900013D1217E89B9C16A11F4700F02D0806807
:102BA00040050AD4206C20F480702064206CC0049E
:102BB00003D4206C40F0010020640020BEE7000038
:102BC00018B50021009190F83C20012A07D001227D
:102BD00080F83C2002689368DB0702D011E00220F5
:102BE00018BD936843F0010393602E4A2E4B126880
:102BF000B2FBF3F202EB420200E0521E0092002A06
:102C0000FBD102689368DB0742D0036C40F2016499
:102C1000A34343F48073036453685B0505D5036CD9
:102C200023F4005343F480530364036CDB0404D5A2
:102C3000436C23F00603436400E0416480F83C10D9
:102C40001A496FF02203136049680068CA061849E0
:102C500006D0884224D1816811F0405F13D01FE074
:102C60008842F8D0134A904203D1D1F80423D20607
:102C7000F1D0114A904213D1D1F8041301F01F0191
:102C80001029E8D30CE0816841F08041816007E0C1
:102C9000016C41F010010164416C41F0010141649B
:102CA000002018BD3C00002040420F0000230140DE
:102CB00000200140002101400022014010B5040025
:102CC00002D0607910B106E0012010BD0020207113
:102CD000204600F005F801206071002010BD0000C2
:102CE00008B500680649884208D10648016841F4E1
:102CF00080510160006800F48050009008BD000021
:102D000000300240303802402DE9F84304464FF0CD
:102D10000009CDF8009063484FF41651A56D006886
:102D2000B0FBF1F72E6894F85C10082000FA01F16E
:102D300031420FD021680A6852070BD50A6822F089
:102D400004020A6094F85C108840A860606D40F04E
:102D50000100606594F85C104FF0010808FA01F07A
:102D6000304208D021684969090604D5A860606D21
:102D700040F00200606594F85C1004208840304206
:102D800008D021680968890704D5A860606D40F003
:102D90000400606594F85C1010208840304218D020
:102DA00021680968090714D5A860206801684903EB
:102DB00004D50068000308D5A16C07E00168C905C7
:102DC00003D4016821F008010160216C09B120469B
:102DD000884794F85C1020208840304231D0216828
:102DE0000968C9062DD5A86094F835000528206823
:102DF000016806D0490347D5006800031DD4616C03
:102E00001CE021F0160101602068416921F0800179
:102E10004161206C08B9A06C20B12068016821F0E4
:102E20000801016094F85C103F208840A86084F895
:102E3000358084F83490216D1FE0E16B09B12046A4
:102E40008847606D00282BD0606DC00714D0052026
:102E500084F835002068016821F0010101600098C4
:102E6000401C0090B84203D820680068C007F6D123
:102E700084F8358084F83490E16C002910D001B0DA
:102E80002046BDE8F04308470168C905D5D401686C
:102E900021F01001016084F8358084F83490CCE78B
:102EA000BDE8F8833C0000202DE9F041044600F025
:102EB000B9F906465CB1022084F83500002584F893
:102EC00034502068016821F0010101600DE001200B
:102ED000BDE8F08100F0A6F9801B052805D9202067
:102EE0006065032084F83500F2E720680068C007B9
:102EF000F0D12268116820480140D4E90103184349
:102F0000D4E903363343184363691843A36918436C
:102F1000E3691843236A18430843616A042903D10B
:102F2000D4E90B1319430843106020684069666AAE
:102F300020F0070130460E43012704280CD1A06A77
:102F40000643E06A40B12046FEF7CEF920B14020AA
:102F5000606584F83570BAE7206846612046FEF760
:102F6000AFF994F85C203F2191408160656584F859
:102F700035700020ACE700003F8010F02DE9F041F3
:102F80000446866D90F83400002501280DD00120FC
:102F900084F8340094F835700020012F07D084F8AD
:102FA000340002252846BDE8F0810220FBE7022715
:102FB00084F8357060652046FEF7C0F994F85C101F
:102FC0003F208840B0602068016841F01601016030
:102FD000206C20B12068016841F008010160206880
:102FE000016841F001010160DCE7000070B50446B2
:102FF00000F018F90546601C02D00448007804442B
:1030000000F010F9401BA042FAD370BD3000002040
:103010002DE9F84FDFF8BCA10022012503264FF06F
:103020000F090AF1040BAAF1040E00BF0B6805FAA0
:1030300002F42340A34270D10F7907F00307012F58
:1030400001D0022F16D187684FEA420806FA08FC21
:1030500027EA0C07D1F80CC00CFA08FC4CEA070C64
:10306000C0F808C04768A7430C79C4F30014944023
:103070003C4344600C79E443A4070AD0C4684FEA97
:10308000420C06FA0CF7BC438F6807FA0CF727438B
:10309000C7600C7904F00304022C12D1D40800EBB1
:1030A000840CDCF820405707FF0E09FA07F824EAE1
:1030B0000804D1F8108008FA07F848EA0408CCF8A8
:1030C000208004684FEA420C06FA0CF7BC430F79E3
:1030D00007F0030707FA0CF7274307604C6814F45E
:1030E000403F70D03C4C276847F4804727602468F5
:1030F00022F0030704F480440094384C07EB040CDE
:10310000DCF8084897074FEA177809FA08F7BC4334
:10311000334FB84202D1002724E054E0314FB84287
:1031200001D101271EE0304FB84201D1022719E03A
:103130002E4FB84201D1032714E02D4FB84201D1E0
:1031400004270FE02B4FB84201D105270AE02A4F90
:10315000B84201D1062705E0284FB84201D1072720
:1031600000E0082707FA08F72743CCF80878DAF8D0
:1031700000405746D1F804C09C435FEACC2C00D5F0
:103180001C433C60DBF800405F46D1F804C09C4320
:103190005FEA8C2C00D51C433C60DEF8004077468B
:1031A000D1F804C09C435FEA8C3C00D51C433C60D2
:1031B000084F083F3C68D1F804C09C435FEACC3C10
:1031C00000D51C433C60521C102AFFF42FAFBDE811
:1031D000F88F0000083C01404438024000300140B4
:1031E000000002400004024000080240000C0240BF
:1031F000001002400014024000180240001C02406F
:103200000069084000D001207047426921EA0203AA
:103210000A4043EA0241816170470AB18161704707
:103220000904FBE701488068704700003000002077
:103230002DE9FF4104460068816800917749784E86
:103240004FF04027884201D1324600E03A4692686A
:10325000019240688846029001D1304600E038462D
:103260004068039060684FF00105B0F5007F1CD006
:10327000D8B1900705D50398000602D5204602F084
:1032800031FA0098C0070FD0029840067FD5216818
:103290002046CA68E16A8B1CE3620A80618E491E7F
:1032A0006186618E002967D071E00098800719D58A
:1032B0000298000616D5616A20468A1C626222685E
:1032C0000988D160618D491E6185618D51B90168A0
:1032D0004A6822F0A0024A60418E19B980F8415034
:1032E00000F0A0F80198C00705D00398400602D569
:1032F000204602F0C7F90198400622D503988006BF
:103300001FD52168414501D1304600E0384640686C
:1033100020F0600101D1304600E03846416020686D
:10332000416821F0A00141602068C1688068019077
:1033300084F84150606C40F002006064204600F068
:1033400072F80098000767D50298800664D5206857
:10335000416821F0A00141602168414501D130461A
:1033600000E03846406820F0600000D03E467060C3
:1033700020688068009043E001684A6822F060029B
:103380004A60418D19B980F8415000F04BF800981F
:1033900040061ED5029880061BD52068416821F0A2
:1033A000600141602168414501D1304600E0384666
:1033B000406820F0A00101D1304600E0384641606D
:1033C00084F84150606C40F002006064204600F0D8
:1033D0002AF8019800071FD5039880061CD521689C
:1033E000414501D1304600E03846406820F0A00059
:1033F00000D03E4670602068416821F06001416065
:1034000084F84150606C40F00400606404B02046D1
:10341000BDE8F04100F007B8BDE8FF81003800408A
:1034200000340040704770472DE9F047040005D094
:1034300094F841004FF0000818B109E00120BDE800
:10344000F08784F8408051486063204600F0A6F879
:10345000022684F841602068C16940F6BF77B9430D
:10346000C1612068066260694FF4007902282FD09C
:10347000E06870B12025A068202800D86D000120E8
:1034800000F042FF216949451FD1E16819B1A90047
:1034900002E01025EFE7E900B0FBF1F000EB80005F
:1034A00061694000B0FBF1F0401D0A21B0FBF1F072
:1034B00000F00101401A40080902821EFE2A09D3C9
:1034C000606C40F010006064B8E7B0FBF5F0E5E731
:1034D0000220002122690843024320680262D4E9E5
:1034E00001010843A269E168114308432168CA69E0
:1034F000BA43104340F40060C861206A01283AD101
:103500002348606323482168234A4FF040238142C7
:1035100001D1114600E01946C96921EA070101D12C
:10352000154600E01D46E9612168814201D111463E
:1035300000E019460E622568854201D1114600E07F
:103540001946C9698EB2616849451BD0D1B10021C5
:103550002789B4F80CC047EA0C07B4F818C04CEA45
:10356000010C47EA0C07B9B2314341F400618542CE
:1035700000D01A46D161C4F84480012084F841008B
:1035800000205CE74FF48071E2E700004557010836
:10359000313201080038004000340040F0B58BB0F3
:1035A000064614216846FDF77CF80025059506952A
:1035B000079508952C493068884253D10120059021
:1035C000C0200224CDE9060405A800F0CBFE08B116
:1035D000FEF7A2FF2548016841F400410160006840
:1035E000224900F4004010390990086840F00100B9
:1035F0000860086800F001000990086840F00400C5
:1036000008600868062700F0040009904FF40040A5
:103610008DE83100CDE9035769461548FFF7F8FCFE
:103620004FF4A0508DE83100CDE9035769461148A9
:10363000FFF7EEFC114C1048C4E900050015A56029
:10364000C4E90350800060618000A0618011C4E97A
:10365000070520466562FFF727FC08B1FEF75CFF0F
:10366000F463A6630BB0F0BD003C0040403802405C
:10367000000002400008024010600240D0320020EA
:103680000D4910B5884215D10C4B002003F580512F
:1036900003EB001214685268240204EB122241F872
:1036A0002020140203D542F07F4241F82020401C24
:1036B000FF28EDDD10BD00008832002068070020E3
:1036C00070470000024881680278114481607047A9
:1036D000300000200B4810B5016841F40071016012
:1036E000016841F480610160016841F4807101600A
:1036F000032000F06FF80F2000F006F800F024F827
:10370000002010BD003C024070B50D4D04464FF442
:103710007A712878B1FBF0F00A490968B1FBF0F042
:1037200001F074FB48B9102C07D200222146501E2C
:1037300000F030F800206C6070BD012070BD00000A
:10374000300000203C0000200A4808B5016841F420
:1037500080410160006800F4804000900548001F2F
:10376000016841F080510160006800F080500090D5
:1037700008BD000044380240002809DB00F01F02A9
:10378000012191404009800000F1E020C0F80011C3
:1037900070470000F0B40E4B1B680C46C3F30223C5
:1037A000C3F10705042D00D90425191D072901D2ED
:1037B000002300E0DB1E012606FA05F1491E214028
:1037C00099409E40761E16403143F0BC08F0FCBE86
:1037D0000CED00E0064900F0070208684FF6FF0311
:1037E000184040EA0220034A104308607047000076
:1037F0000CED00E00000FA0570470068416200200F
:103800007047F0B50368586A39B19C6A4FF4827604
:1038100000EB144400204D1E0AE040EA024098628A
:103820000FE006EB8007DF59401C04EB1744C0B2E1
:10383000A842F6D344EA02404FF4807202EB8101C1
:1038400058500020F0BDD0F8080507F019BC01EB76
:10385000C10200EB8202D0F80805D26C07F084BBED
:1038600001EBC10200EB8202D0F80805D2F88C22ED
:1038700007F0CFBBD0F8080507F004BC0A0601F03A
:103880000F0101EBC10100EB810101D53C3101E0E9
:1038900001F51F71006808F097BC70B504460B066F
:1038A00001F00F0000EBC00104EB81014FF00102B9
:1038B0004FF0000503D581F83D203C3103E081F84D
:1038C0007D5201F51F71087094F8BC04012808D0DE
:1038D00084F8BC24206808F031F984F8BC54002036
:1038E00070BD022070BD70B5044601F00F00626823
:1038F000904201D9012070BD0B0601F00F0101EBD0
:10390000C10104EB81014FF001024FF0000503D526
:1039100081F83D203C3103E081F87D5201F51F71B3
:103920008D70087094F8BC04012808D084F8BC2479
:10393000206808F0FFFA84F8BC54002070BD022013
:1039400070BD01F00F0101EBC10100EB8100D0F867
:103950009C0270472DE9F04104460F0601F00F006C
:1039600000EBC00104EB81014FF001064FF00005B0
:1039700003D581F83D603C3103E081F87D5201F5CB
:103980001F710870CA600B714A7802B10881022B5E
:1039900000D14D7194F8BC04012809D084F8BC64AE
:1039A000206808F023F8284684F8BC54BDE8F0816C
:1039B0000220FBE770B50C4601F00F0505EBC501D1
:1039C00000EB8101C1F89432C1F88C220023C1F8C8
:1039D0009C3281F87D3281F87C52036901F51F71B8
:1039E000012B00D14A612207027C006803D008F055
:1039F000F9FA002070BD08F0E3F9FAE770B5044663
:103A00000D4601F00F006168884201D9012070BDA8
:103A100029064FF000064FF0010207D500EBC00168
:103A200004EB810181F83D203C3107E005EBC50145
:103A300004EB810181F87D6201F51F718A700870C5
:103A400094F8BC04012807D084F8BC24206808F04E
:103A50009DFA280702D007E0022070BD217C04F205
:103A6000C442206808F03AFA84F8BC64002070BDB3
:103A700070B50C4601F00F0505EBC50100EB8101A7
:103A80004B65CA640023CB65012381F83D3001F802
:103A90003C5F0369012B00D14A612207027C006868
:103AA00003D008F09FFA002070BD08F089F9FAE70A
:103AB0002DE9FC5F05680446284608F026FC00282E
:103AC0007DD1206808F04DFC002878D0D5F8080892
:103AD000C0F30D20C4F8FC04206808F042FC800705
:103AE00004D52068416901F002014161206808F0B5
:103AF00038FCC10604F2C440009034D520688169C6
:103B000021F0100181612F6A07F00F0000EBC00067
:103B100004EB8006C7F3434006F51F76022802D067
:103B2000062811D01AE047F6F070074216D0C7F306
:103B30000A1217462846316908F017FC30693844E4
:103B40003061306A384408E008222846009908F0BD
:103B50000CFC306AC7F30A1108443062206881699E
:103B600041F010018161206808F0FBFB00034FF079
:103B7000080B4FF0000A4FF001097CD500262068A1
:103B800008F0CEFB074674E0F80770D0F1B2206869
:103B900008F0DFFB8046C00707D005EB4611C1F8EF
:103BA000089B3146204606F08FF85FEA087024D55E
:103BB00005EB4611C1F808BB2068016C00E025E266
:103BC00000EB46100191D0F8082BFC4B994205D927
:103BD000110403D54FF40041C0F8081B204600F043
:103BE0002FFBF6490198884207D92069012804D1A2
:103BF00020680121009A08F071F95FEAC86004D5D5
:103C000005EB46111020C1F8080B5FEA88701DD53E
:103C10006869000605D5D5F8040840F48061C5F848
:103C2000041806EBC60004EB800090F87F1200F544
:103C30001F70012905D180F803A0F1B2204600F0E1
:103C4000EBF905EB46110220C1F8080B5FEA88602A
:103C500004D505EB46102021C0F8081B5FEA884018
:103C600005D505EB46104FF40051C0F8081B7F083E
:103C7000761C002F88D1206808F073FB40036FD5B5
:103C8000206808F046FB0746002667E0F80763D087
:103C9000F1B2206808F04BFB8046C00723D006F045
:103CA0000F0209FA02F0D5F834288243C5F8342807
:103CB00005EB4610C0F80899206901280FD106EBE2
:103CC000C60004EB8000D0E912211144C16436B96A
:103CD000606D20B920680121009A08F0FFF8F1B268
:103CE0002046FFF7B4FD5FEA087003D505EB4611E7
:103CF000C1F808B95FEAC86004D505EB4611102089
:103D0000C1F808095FEA486004D505EB4610402178
:103D1000C0F808195FEA887017D53146284608F0C0
:103D2000C7FA06EBC60004EB800090F83F103C3069
:103D3000012905D180F803A0F1B2204600F068F90E
:103D400005EB46110220C1F808095FEA086003D5B7
:103D50003146204606F01EF87F08761C002F95D1CC
:103D6000206808F0FEFA002811DAD5F8040820F0DF
:103D70000101C5F8041894F8F40401282BD020465A
:103D800000F042FA2068416901F000414161206879
:103D900008F0E7FA00050BD5D5F80808C00702D0EF
:103DA000204600F099FA2068416901F40061416100
:103DB000206808F0D6FAC00466D5D5F8040820F0CB
:103DC0000100C5F804081021206808F071FA0021EC
:103DD0004FF67F321FE084F8F4A400212046FFF75D
:103DE0000BFDCFE705EB4110C0F80829D0F80039EA
:103DF00023F40013C0F80039C0F8082BD0F8003BBA
:103E000023F40013C0F8003BD0F8003B43F00063FC
:103E1000C0F8003B491C60688842E3D8D5F81C080C
:103E200040F00111C5F81C18206B002828460DD061
:103E3000D0F8840840F00B01C5F88418D5F8440880
:103E400040F00B012846C5F844180DE0D0F81408DE
:103E500042F22B010843C5F81408D5F8100840F0C9
:103E60000B012846C5F81018D0F8000820F4FE61B0
:103E7000C5F80018217C2068009A08F02FF8206807
:103E8000416901F480514161206808F06AFA8004B8
:103E900015D5206807F0EAFD206808F029FAE060EF
:103EA00000F098FB0146227B206808F0BDFA20460E
:103EB00000F094F92068416901F4005141612068E3
:103EC00008F04FFA000707D5204600F0A1F9206856
:103ED000416901F008014161206808F042FA0006DA
:103EE00016D5A86920F08000A86101260DE000BF6A
:103EF00006EBC60004EB800090F87F02012803D196
:103F0000F1B22046FFF7BAFC761C6068B042EFD8E9
:103F1000206808F026FAC00221D501264F4616E097
:103F200005EB4610D0F8001906EBC60004EB800044
:103F300090F84020012A09D1002907DA80F83F7063
:103F4000F0B240F080012046FFF798FC761C6068D4
:103F5000B042E5D82068416901F4801141612068D0
:103F600008F0FFF9800234D501204B4629E000BF5C
:103F700005EB4011D1F8001B00EBC00204EB8206F8
:103F800096F88022012A1BD1002919DA94F8FC2422
:103F900001F4803102F00102914211D186F87F32A2
:103FA000A96941F08002AA616969090608D4D5F8B7
:103FB000040840F40070C5F8040805E00A30544FC6
:103FC000401C61688142D3D82068416901F4001126
:103FD0004161206808F0C5F9400007D52046FFF789
:103FE00032FC2068416901F080414161206808F09D
:103FF000B8F940070AD520684568680702D5204609
:10400000FFF738FC2068416829434160BDE8FC9F08
:10401000D0F8080507F08AB8D0F8080507F088B886
:104020002DE9F0418AB0040005D094F8BD0426685B
:10403000002520B108E001200AB0BDE8F08184F835
:10404000BC54204600F05EF8032084F8BD04F06BF9
:10405000C00500D42561206807F0ACFE04F1100112
:10406000282288466846FCF703FB94E80F0007F017
:104070000BFD0226C8BB0021206808F095F900203E
:1040800001270EE000EBC00104EB810181F83D70D7
:1040900001F83C0F08810D71CD600D61401CC0B26C
:1040A0008D6161688142EDD8002011E000EBC00114
:1040B00004EB810181F87D5281F87C0281F8805205
:1040C000C1F88852C1F88C52401CC0B2C1F8945259
:1040D00061688142EAD8282241466846FCF7C8FA5E
:1040E00094E80F0007F0ACFD10B184F8BD64A2E7BE
:1040F00084F8385084F8BD74206807F093FD0020E0
:104100009AE700002DE9F04186B004461421684684
:10411000FCF7C7FA2C492068884251D12B4C4FF04C
:104120000008206840F004002060206800F00400CF
:104130000590206840F001002060206800F0010038
:104140000590206840F0020020602068022500F001
:10415000020005900D208DE8210103260A276946FB
:104160001B48CDE90367FEF753FF28208DE82101A6
:1041700069461848CDE90367FEF74AFF43F6234036
:104180008DE8210169461448CDE90367FEF740FF39
:10419000206840F000502060206800F0005005903A
:1041A000206840F0804020602068002200F08040BD
:1041B000059001214D20FFF7EDFA4D20FFF7DCFAC5
:1041C00006B0BDE8F0810000000004403038024035
:1041D00000080240000002400004024070B504469E
:1041E000C068012570B1022801D0FEF795F9294673
:1041F000D4F8080506F0F2FFD4F80805BDE87040D1
:1042000006F0ADBF0025F2E7D0F8080506F0D0BFF4
:10421000D0F8080506F0D6BF10B5044690F8BC04E7
:1042200001280BD0012084F8BC0484F838102068E1
:1042300008F0E8F8002084F8BC0410BD022010BD8E
:104240002DE9F04100F2C441D0F80845054604F2DA
:10425000AA200F46064607F0DEF994F8AA120020BD
:10426000C90603D13146204607F04AF894F8AA124D
:1042700001F01F01012903D13146204607F062F801
:10428000002806D13946D5F80805BDE8F04106F00A
:10429000B1BFBDE8F08110B50446006894F8BC14C5
:1042A000012906D0012184F8BC14A16A012902D099
:1042B00008E0022010BDA169012903D0816B41F4FF
:1042C00080318163206807F0CEFF206807F09CFCF6
:1042D000002084F8BC0410BD10B50446D0F80805D1
:1042E00006F0CAFF2068D0F8001E41F00101C0F8B6
:1042F000001E206A002804D00248016841F006012F
:10430000016010BD10ED00E001460020012907D139
:104310001049096811F4000103D0012900D10E48A9
:1043200070470C48001F01680068490200F03F0018
:1043300001D50A4900E00A49064AB1FBF0F07C3297
:104340001168C1F3881141431068C0F30270B1FBDA
:10435000F0F07047083802400080BB0000127A007D
:104360000024F4002DE9F843054600684FF00109E8
:10437000C1074FF0000601D1400727D5DFF80C81B7
:10438000C8F86860FEF74EFF0746414C05E000BFE5
:10439000FEF748FFC01B022857D820680001F7D459
:1043A00068688101287A41EA0070394984310860DF
:1043B000C8F86890FEF736FF074604E0FEF732FFC4
:1043C000C01B022841D820680001F7D52878800753
:1043D00052D52F484030016841F08051016000689B
:1043E0002C4C00F080500090206840F480702060D9
:1043F000FEF718FF074604E0FEF714FFC01B022873
:1044000023D82068C005F7D5214C7034206810F4FB
:10441000407020D0A98901F4407181421BD02068EE
:104420001D4920F44070C1F800900E6020602068A3
:10443000C00710D0FEF7F6FE064641F2883707E0C7
:10444000FEF7F0FE801BB84202D90320BDE8F883D6
:1044500020688007F4D5E9680D48C1F301220830CF
:10446000032A0BD0016821F4F81101602068A989A2
:10447000C1F30B01084320600020E7E70268074B07
:1044800022F4F81219400A430260EFE700004742A5
:104490000038024000700040400E4742FFFCFF0F12
:1044A0002DE9F0470E46050065D0DFF81481D8F8F5
:1044B0000000F7B200F00700B04207D288F80070A1
:1044C000D8F8000000F00700B04254D128683D4CF5
:1044D000810712D5400703D5206840F4E0502060E2
:1044E0002878000703D5206840F4604020602068E9
:1044F000A96820F0F000084320602878C0072DD07C
:10450000304968680839012812D0022813D00328DE
:1045100011D00968890700292DDA216821F00301EB
:1045200001432160FEF77EFE814641F2883A0EE0AB
:1045300009688903EFE709688901ECE7FEF772FE75
:10454000A0EB0901514502D90320BDE8F08720689E
:10455000696800F00C00B0EB810FEFD1D8F80010C3
:10456000404601F00701B14207D90770006800F02A
:104570000700B04201D00120E7E72878400705D5C1
:104580002068E96820F4E05008432060287800079C
:1045900006D52068296920F4604040EAC100206007
:1045A00000F03EF82168084AC1F30311515CC8408D
:1045B0000649086006480068FFF7A6F80020C4E72F
:1045C000003C024008380240F1F001083C000020A5
:1045D0003400002001480068704700003C000020C3
:1045E0000448054900680968044AC1F38221515C06
:1045F000C84070473C0000200838024001F1010823
:104600000448054900680968044AC1F34231515C15
:10461000C84070473C0000200838024001F1010802
:10462000154810B5006810F00C02144813D0411062
:10463000042A0FD0082A0ED10F4C241F22682368A9
:1046400002F03F025B0207D52068C0F38810A0FB90
:10465000010106E0084610BD2168C1F38811A1FBE5
:1046600000010023FBF7ACFD2168C1F30141491CA7
:104670004900B0FBF1F010BD083802400024F400FE
:104680002DE9F84F04006ED02078DFF84C93C00776
:10469000A9F104054AD009F104000168C1F38101C0
:1046A000012908D00068C0F3810002280AD1D9F896
:1046B0000000400206D52868800337D560680028CE
:1046C000E1D033E06068B0F5803F10D0B0F5A02FA6
:1046D000286810D020F480302860286820F48020DA
:1046E00028606068A8B1FEF79DFD06460DE02868C9
:1046F00040F48030F4E740F480202860F7E700BF02
:10470000FEF790FD801B642873D828688003F7D5D6
:104710000CE0FEF787FD064605E000BFFEF782FDD0
:10472000801B6428F0D828688003F7D42078DFF84D
:10473000AC8280074FF0000A3ED5A748001D0168F3
:1047400011F00C0F08D00068C0F3810002280BD1D3
:10475000D9F80000400207D42868800716D5E06821
:10476000012800D112E033E1E068B8B10120C8F8B7
:104770000000FEF757FD064605E000BFFEF752FDBC
:10478000801B0228C0D828688007F7D528682169CF
:1047900020F0F80040EAC10028600DE0C8F800A051
:1047A000FEF740FD064604E0FEF73CFD801B0228B4
:1047B0001FD828688007F7D42078000722D5864FB5
:1047C00087486169703771B101210160FEF72AFDE8
:1047D000064604E0FEF726FD801B022809D838684B
:1047E0008007F7D50EE0C0F800A0FEF71BFD0646D7
:1047F00005E082E0FEF716FD801B02287DD83868B0
:104800008007F7D42078400768D5DFF8CCB10027BF
:104810000BF13C0BDBF80000C0000BD4DBF8001000
:1048200041F08051CBF80010DBF80000012700F0C8
:10483000805000906B4E3068C00510D4306840F452
:1048400080703060FEF7EEFC009005E0FEF7EAFCB9
:104850000099401A022850D83068C005F6D55E4E3F
:10486000A0686C3601280FD00528306810D020F0E1
:1048700001003060306820F004003060A068B8B1FA
:10488000FEF7D0FC00900FE0306840F00100F4E744
:1048900040F004003060F7E7FEF7C4FC0099411ACD
:1048A00041F28830814266D830688007F4D50EE046
:1048B000FEF7B8FC009007E0FEF7B4FC0099411A3F
:1048C00041F28830814256D830688007F4D42FB145
:1048D000DBF8001021F08051CBF80010A069C8B3BC
:1048E0003D49091D0968C1F3810102294AD0022806
:1048F000504607D0C8F8600000E03CE0FEF792FCAC
:1049000004463BE04746C8F86000FEF78BFC0646CD
:1049100005E000BFFEF786FC801B02282BD8286824
:104920008001F7D4D4E907010843A16A2E4A490857
:1049300002EB0141626A41EA8211084394F82C10AB
:1049400040EA0161C9F8001001203866FEF76AFCF0
:10495000044606E03EE000BFFEF764FC001B0228B0
:1049600009D828688001F7D534E000BFFEF75AFC6B
:10497000001B022802D90320BDE8F88F28688001B7
:10498000F4D427E00128F7D0D9F80000E26900F458
:10499000800191421CD1226A00F03F01914217D15F
:1049A00047F6C071626A0140B1EB821F10D1A26A62
:1049B0004FF0FF3300F4403103EB5202B1EB024FF2
:1049C00006D194F82C1000F07060B0EB016F01D0AC
:1049D0000120D1E70020CFE7043802400000474221
:1049E000800E4742007000400000FFFF70B50400D9
:1049F00003D06079002510B105E0012070BD25715C
:104A0000204600F00DF8022060712068016841F036
:104A10000401016001206071A560002070BD0000EC
:104A200008B500680649884208D10648016841F087
:104A300040010160006800F04000009008BD0000E7
:104A40000008065034380240704770B5040009D0A1
:104A5000606A002540B125616561A56294F8510046
:104A600040B10CE0012070BD6068B0F5827FF4D0E9
:104A7000E561F2E784F85050204600F045F8022046
:104A800084F851002068016821F040010160A0888D
:104A9000218900F4827001F404410843A18901F4E2
:104AA00000610843217C01F002010843217D01F0EF
:104AB00001010843218B01F400710843217F01F0BB
:104AC0003801084394F8201001F080010843218D3B
:104AD00001F40051084321680860A069042101EA3B
:104AE000104094F8241001F0100108432168486038
:104AF0002068C16921F40061C1616565012084F805
:104B00005100002070BD00002DE9F04186B006463E
:104B100014216846FBF7C5FD25493068884244D119
:104B200024480025016841F4805101600068214952
:104B300000F4805014390590086840F001000860C6
:104B4000086800F001000590086840F00200086065
:104B50000868022400F002000590802003274FF02F
:104B600005088DE8B10169461348FEF751FA08209F
:104B70008DE8B10169461148FEF74AFA114C104818
:104B80002060780660604020C4E902050001C4E9A5
:104B90000405A561E561256220466562FEF784F99A
:104BA00008B1FDF7B9FCB464A66306B0BDE8F081B6
:104BB000003001404438024000000240000402403E
:104BC00058640240983300202DE9F84F044690F8CD
:104BD000500000271D461646894601280DD04FF08B
:104BE000010B84F850B0FEF71DFB804694F851008D
:104BF000BA46012804D0022793E00220BDE8F88FCE
:104C0000B9F1000F73D0002E71D0032084F8510049
:104C1000C4F854A0C4F83090A686E686C4F838A03C
:104C2000A4F83CA0A4F83EA0C4F844A0C4F840A056
:104C3000A068B0F5004F09D12068016821F040015B
:104C400001602068016841F48041016020680168CA
:104C5000490603D4016841F040010160E068B0F505
:104C6000006F606803D030B3012E24D041E008B15A
:104C7000012E1CD1206B21680088C86006E02068E6
:104C80008168890709D5216B0988C160206B801C68
:104C90002063E08E401EE08609E0FEF7C3FAA0EB39
:104CA0000800A84202D3681C01D031E07DB3E08E39
:104CB0000028E4D120E0206B21680078087306E02A
:104CC00020688168890709D5216B09780173206BF9
:104CD000401C2063E08E401EE0860AE0FEF7A2FA48
:104CE000A0EB0800A84203D3681C02D010E017E034
:104CF0006DB1E08E0028E3D142462946204605F0FA
:104D000035FC08B120206065A06818B106E0FFE717
:104D1000032706E02068C16880680090606D00B1DC
:104D2000012784F851B084F850A0384666E70000A7
:104D30002DE9F041044690F850000026012809D0E2
:104D4000012784F8507094F851000025012804D000
:104D500002264EE00220BDE8F08189B182B1032035
:104D600084F8510065652163A286E286A5636564C7
:104D70002564A587E587A068B0F5004F02D00BE059
:104D8000012636E02068016821F0400101602068BA
:104D9000016841F480410160A16C18480864A16C6D
:104DA0001748C863A16C1748C864A06C0565E38EFA
:104DB0002268216B0C32A06CFEF7E0F838B1606D10
:104DC00040F010006065012684F8517011E0206801
:104DD0000168490603D4016841F040010160206880
:104DE000416841F0200141602068416841F00201C2
:104DF000416084F850503046ADE70000FDA4010842
:104E000007A50108DBA401087047704710B5401ED4
:104E1000B0F1807F01D3012010BD4FF0E02460612C
:104E20000F21601707F0D0FB0020A0610720206150
:104E3000002010BD7047704770B590F83C20012AE3
:104E400032D0012480F83C40022280F83D200368E3
:104E50005A689D6822F070060A6832435A60134B04
:104E600002689A4214D0B2F1804F11D0104B9A428E
:104E70000ED0104B9A420BD00F4B9A4208D00F4BDA
:104E80009A4205D00E4B9A4202D00E4B9A4204D160
:104E9000496825F080031943916080F83D40002166
:104EA00080F83C10084670BD022070BD0000014033
:104EB0000004004000080040000C004000040140D5
:104EC000004001400018004010B5040003D094F8E1
:104ED0003D0010B107E0012010BD002084F83C0027
:104EE000204600F01FF8022084F83D00211D2068B4
:104EF00005F058FC012084F8460084F83E0084F850
:104F00003F0084F8400084F8410084F8420084F8AF
:104F1000430084F8440084F8450084F83D000020F4
:104F200010BD000008B5204A0168204891420ED10A
:104F3000016841F0020101600068002200F00200F7
:104F4000009011461D20FEF725FC1D2027E0184A81
:104F5000914207D1016841F008010160006800F04A
:104F6000080009E0134A914208D1016841F080012C
:104F70000160006800F08000009008BD0E4A914278
:104F8000FBD1016841F4807101600068002200F4E7
:104F90008070009011462D20FEF7FCFB2D20BDE80F
:104FA0000840FEF7E9BB0000000400404038024022
:104FB000000C0040001C00400020004090F83D1014
:104FC000012901D001207047022180F83D100168BD
:104FD000CA6842F00102CA6000681149884214D0D0
:104FE000B0F1804F11D00F4988420ED00E4988424F
:104FF0000BD00E49884208D00D49884205D00D4992
:10500000884202D00C49884204D1816801F007012E
:10501000062903D0016841F00101016000207047BA
:10502000000001400004004000080040000C004067
:1050300000040140004001400018004070B50446E3
:1050400090F83C000025012817D0012684F83C6028
:10505000022084F83D002068826822F0770222F462
:105060007F4282600868502838D00DDC20284FD05D
:1050700005DC90B3102811D14AE0022070BD302821
:1050800046D040280AD13BE060282FD070280DD0B0
:10509000B0F5805F03D0B0F5005F12D0012584F831
:1050A0003D60002084F83C00284670BDCB68D1E903
:1050B0000121206805F0E7FB2068816841F0770155
:1050C00009E0CB68D1E90121206805F0DCFB20680C
:1050D000816841F480418160E1E719E0CA6849686C
:1050E000206805F0A5FC5021206806E0CA684968E0
:1050F000206805F0AEFC6021206805F0CEFBCEE70D
:10510000CA684968206805F093FC40212068F4E7EC
:10511000226801461046F0E7704770B50446006803
:1051200001694FF00005C943890715D4C168C94317
:10513000890711D4E91E0161012020772068806968
:105140008007204602D0FFF7E7FF04E000F0D6F822
:10515000204600F068F9257720680169C9434907AE
:1051600017D4C168C943490713D46FF00401016122
:10517000022020772068806910F4407F204602D00A
:10518000FFF7CAFF04E000F0B9F8204600F04BF941
:10519000257720680169C943090716D4C168C94346
:1051A000090712D46FF008010161042020772068FC
:1051B000C0698007204602D0FFF7AEFF04E000F090
:1051C0009DF8204600F02FF9257720680169C94332
:1051D000C90617D4C168C943C90613D46FF01001BA
:1051E0000161082020772068C06910F4407F2046C4
:1051F00002D0FFF791FF04E000F080F8204600F0B5
:1052000012F9257720680169C943C90708D1C16827
:10521000C943C90704D1891E0161204600F0A6F9DF
:1052200020680169C943090609D4C168C943090650
:1052300005D46FF0800101612046FFF7FBFD206877
:105240000169C943490609D4C168C943490605D45F
:105250006FF040010161204600F0A4F92068016967
:10526000C94389060BD4C168C943890607D46FF0C6
:10527000200101612046BDE87040FFF7DCBD70BD34
:1052800030B587B0044614216846FBF70AFA246853
:10529000164D0021164A02231648AC420ED114685E
:1052A00044F001041460126802F001020592042225
:1052B0000092CDE90131CDE9031311E00E4DAC426E
:1052C00011D1146844F001041460126802F0010264
:1052D000059240220092CDE9013103910921049108
:1052E0006946FDF795FE07B030BD0000000C004098
:1052F0003038024000000240001C0040704770B58A
:10530000044690F83C0000260D4601280FD00120ED
:1053100084F83C006AB1042A1DD0082A2FD00C2A38
:105320003FD00126002084F83C00304670BD0220AA
:1053300070BD206805F0BAFA2068816941F0080163
:1053400081612068816921F004018161206881699F
:105350002A69114311E0206805F0D8FA20688169B4
:1053600041F4006181612068816921F4806181617B
:10537000206881692A6941EA02218161D2E72068B7
:1053800005F0FAFA2068C16941F00801C16120689E
:10539000C16921F00401C1612068C1692A69114312
:1053A00011E0206805F01CFB2068C16941F4006130
:1053B000C1612068C16921F48061C1612068C1694F
:1053C0002A6941EA0221C161ACE710B5040003D0AB
:1053D00094F83D0010B107E0012010BD002084F8D2
:1053E0003C00204600F01EF8022084F83D00211DFC
:1053F000206805F0D7F9012084F8460084F83E00C3
:1054000084F83F0084F8400084F8410084F84200AA
:1054100084F8430084F8440084F8450084F83D0093
:10542000002010BD7047704710B50446022249B1F4
:1054300004290ED0082913D094F84100012816D071
:10544000012010BD94F83E000128F9D184F83E20D7
:105450000FE094F83F000128F2D184F83F2008E0E3
:1054600094F840000128EBD184F8402001E084F852
:1054700041200122206805F0F9F916492068164AF2
:10548000884201D0904203D1436C43F4004343640B
:105490002068884213D0B0F1804F10D00F49884265
:1054A0000DD00F4988420AD00E49884207D0904259
:1054B00005D00D49884202D00C49884204D1816848
:1054C00001F00701062903D0016841F001010160E4
:1054D000002010BD00000140000401400004004015
:1054E00000080040000C004000400140001800404F
:1054F00030B504460D460068002205F0B7F9194B97
:1055000041F2111120688A10984202D0164B98423D
:1055100009D1036A0B4206D1036A134203D1436CDB
:1055200023F4004343642068036A0B4206D1016AF6
:10553000114203D1016821F00101016001203DB158
:10554000042D08D0082D09D084F84100002030BD7A
:1055500084F83E00FAE784F83F00F7E784F840005B
:10556000F4E70000000001400004014010B50B49C1
:10557000044600680968884205D1FBF735FFFBF750
:1055800075FFFCF73BFE064920680968884203D195
:10559000BDE8104009F048BA10BD0000F833002003
:1055A000D0340020704770B5040004D094F83D005A
:1055B000002510B106E0012070BD84F83C50204663
:1055C00000F022F8242084F83D002068C16821F40E
:1055D0000051C160204605F0A5FA2068016921F458
:1055E000904101612068416921F02A0141612068F0
:1055F000C16841F40051C1602564202084F83D0059
:1056000084F83E00002070BD10B586B00446142119
:105610006846FBF746F814492068884221D11348B0
:105620000021026842F010020260006800F01000E1
:1056300005900E481438026842F0010202600068CA
:1056400000F0010005904FF4C06000900220CDE909
:105650000101032003900720049069460448FDF7E8
:10566000D7FC06B010BD00000010014044380240D5
:1056700000000240FEE70021C176417601218176DB
:105680007047000070B515490268154B4FF0402473
:105690008A4201D11A4600E02246D568C26A961CA9
:1056A000C6621580428E521E4286428E002A14D156
:1056B00002688A4201D1194600E02146496821F07A
:1056C000600100D023465960418D002905D14FF07B
:1056D000010180F84110FDF7A5FE70BD00380040C3
:1056E0000034004070B5416A144B8A1C4262056860
:1056F0000988134A4FF040249D4201D1154600E02D
:105700002546E960418D491E4185418D002914D10E
:105710000168994201D1114600E02146496821F013
:10572000A00100D022465160418E002905D14FF0E2
:10573000010180F84110FDF775FE70BD0038004092
:10574000003400407CB5016804468868009094F8F5
:1057500041000125042834D10098C00718D04868BA
:10576000C043400614D4C9682046E26A1180E16A49
:10577000891CE162618E491E6186618E41B90168B2
:105780004A6822F060024A6080F84150FDF778FFD5
:105790000098400615D520684168C943890610D491
:1057A000416821F0600141602068C1688068019013
:1057B00084F84150606C40F0020060642046FDF7C0
:1057C00032FE94F84100032834D10098800719D59F
:1057D00021684868C043000614D4626A20461288D3
:1057E000CA60616A891C6162618D491E6185618D33
:1057F00041B901684A6822F0A0024A6080F841502D
:10580000FDF75EFF0098000714D520684168C94382
:1058100089060FD4416821F0A001416020688068AA
:10582000009084F84150606C40F0040060642046B1
:10583000FDF7F9FD7CBD000010B50D4B0024C3F849
:10584000A0420C48016821F440210160016841F444
:1058500080210160C3F8A442022003F5287309F0F7
:1058600027F801201860022009F022F81C6010BD02
:1058700000804042000402400E4810B5016886B026
:1058800041F0020101600068012400F0020005906F
:105890004FF44070CDE900040220CDE90240694692
:1058A0000548FDF7B5FB0548C0F8A042C0F8A44282
:1058B00006B010BD30380240000402400080404273
:1058C00030B50D4B0024C3F8A0420C48016821F408
:1058D00040210160016841F4802101600125C3F885
:1058E000A452022003F5287308F0E2FF1D60022095
:1058F00008F0DEFF1C6030BD008040420004024022
:1059000030B50D46044600F0B1F86006000E00F018
:1059100081F800F0EDF8284600F07CF800F0E8F897
:1059200000F0A4F8012000EB4400C0B200F072F8CF
:1059300000F0DEF8002000F039F8044600F0B6F878
:10594000204630BDF0B51D4614460F46064600F011
:105950008DF87006000E00F05DF800F0C9F818B17F
:1059600000F0A4F80120F0BD384600F053F800F034
:10597000BFF800F07BF8012000EB4600C0B200F059
:1059800049F800F0B5F809E0012C0DD05FF00100F6
:1059900000F00CF8641E05F8010BE4B2002CF3D102
:1059A00000F084F80020F0BD0020F1E72DE9F0417F
:1059B000804616480024016821F4402101600168F6
:1059C0000160134D234626465FF00107C5F8A0622B
:1059D000022008F06DFFC5F8A0726006040ED5F82D
:1059E000240208B1641CE4B2012008F061FF5B1CD2
:1059F000DBB2082BEAD3B8F1000F04D0FFF71CFF8D
:105A00002046BDE8F081FFF75BFFF9E700040240A4
:105A100000804042F0B505461248016821F440215B
:105A20000160016841F4802101600F4B0026C3F83A
:105A3000A06234460127E809C3F8A4026806050EEF
:105A4000022008F035FFC3F8A072022008F030FFF2
:105A5000C3F8A062022008F02BFF641CE4B2082CFB
:105A6000E9D3F0BD00040240008040420D4810B56B
:105A7000016821F440210160016841F48021016046
:105A8000094B0120C3F8A402C3F8A002042003F5C7
:105A9000287308F00DFF00245C60042008F008FF64
:105AA0001C6010BD00040240008040420E4800B55A
:105AB000016821F440210160016841F48021016006
:105AC0000A4B0020C3F8A002C3F8A402042003F587
:105AD000287308F0EDFE01201860586004205DF87E
